:020000040000FA
:100000000C9462000C944B050C9424050C948A000B
:100010000C948A000C948A000C948A000C948A0038
:100020000C948A000C948A000C948A000C948A0028
:100030000C948A000C948A000C948A000C948A0018
:100040000C94DA040C948A000C94A8040C94820496
:100050000C948A000C948A000C948A000C948A00F8
:100060000C9472050C948A00000000002300260006
:10007000290000000000240027002A0000000000E2
:10008000250028002B0004040404040404040202D4
:100090000202020203030303030301020408102007
:1000A0004080010204081020010204081020000012
:1000B0000008000201000003040700000000000027
:1000C00000008D0611241FBECFEFD8E0DEBFCDBFEC
:1000D00011E0A0E0B1E0E8EBF6E102C005900D927E
:1000E000A436B107D9F722E0A4E6B1E001C01D9221
:1000F000AF38B207E1F710E0C2E6D0E004C02197C4
:10010000FE010E94540BC136D107C9F70E94BA06FE
:100110000C945A0B0C940000AF92BF92CF92DF92D6
:10012000EF92FF920F931F93CF93DF936C017B01AC
:100130008B01040F151FEB015E01AE18BF08C0173D
:10014000D10759F06991D601ED91FC910190F081B0
:10015000E02DC6010995892B79F7C501DF91CF9173
:100160001F910F91FF90EF90DF90CF90BF90AF90D5
:100170000895FC01538D448D252F30E0842F90E0AD
:10018000821B930B541710F0CF9608950197089592
:10019000FC01918D828D981761F0A28DAE0FBF2F5B
:1001A000B11D5D968C91928D9F5F9F73928F90E0B1
:1001B00008958FEF9FEF0895FC01918D828D981720
:1001C00031F0828DE80FF11D858D90E008958FEF5D
:1001D0009FEF0895FC01918D228D892F90E0805C26
:1001E0009F4F821B91098F739927089582EF91E0A9
:1001F0000E94EA0021E0892B09F420E0822F089573
:1002000080E090E0892B29F00E94F60081110C9487
:1002100000000895FC01A48DA80FB92FB11DA35AA9
:10022000BF4F2C91848D90E001968F739927848F16
:10023000A689B7892C93A089B1898C918370806439
:100240008C93938D848D981306C00288F389E02DDA
:1002500080818F7D80830895EF92FF920F931F938B
:10026000CF93DF93EC0181E0888F9B8D8C8D981369
:100270001AC0E889F989808185FF15C09FB7F89475
:10028000EE89FF896083E889F989808183708064C1
:1002900080839FBF81E090E0DF91CF911F910F910C
:1002A000FF90EF900895F62E0B8D10E00F5F1F4F1B
:1002B0000F731127E02E8C8D8E110CC00FB607FC2A
:1002C000FACFE889F989808185FFF5CFCE010E94B8
:1002D0000A01F1CFEB8DEC0FFD2FF11DE35AFF4F1B
:1002E000F0829FB7F8940B8FEA89FB898081806246
:1002F000CFCFCF93DF93EC01888D8823B9F0AA8903
:10030000BB89E889F9898C9185FD03C0808186FDD0
:100310000DC00FB607FCF7CF8C9185FFF2CF80811F
:1003200085FFEDCFCE010E940A01E9CFDF91CF9189
:100330000895833081F028F4813099F08230A9F05B
:1003400008958730A9F08830C9F08430B1F48091E5
:1003500080008F7D03C0809180008F778093800024
:10036000089584B58F7784BD089584B58F7DFBCFC4
:100370008091B0008F778093B00008958091B00095
:100380008F7DF9CF1F93CF93DF93282F30E0F901B2
:10039000E255FF4F8491F901E656FF4FD491F901E0
:1003A000EA57FF4FC491CC23A9F0162F81110E9468
:1003B0009901EC2FF0E0EE0FFF1FE458FF4FA591DD
:1003C000B4918FB7F894EC91111108C0D095DE2349
:1003D000DC938FBFDF91CF911F910895DE2BF8CF73
:1003E000CF93DF9390E0FC01E656FF4F24918A57AC
:1003F0009F4FFC0184918823C9F090E0880F991FDA
:10040000FC01EE58FF4FA591B491FC01E458FF4F59
:10041000C591D49161110DC09FB7F8948C9120952E
:1004200082238C938881282328839FBFDF91CF91DB
:100430000895623051F49FB7F8943C91822F8095D3
:1004400083238C93E8812E2BEFCF8FB7F894EC9118
:100450002E2B2C938FBFEACF08959B01AC01220F66
:10046000331F441F551F60E074E284EF90E00E9448
:10047000F90A3093870020938600E1E8F0E080815C
:10048000887F8160808381E0089520918B01260F11
:100490003327331F21323105ECF42091AF01FC01E9
:1004A00090E080E0243069F082E00895A0918B0113
:1004B0002191AC0145595E4FA40FB52FB11D2C936E
:1004C0000196861798F380918B01680F60938B01DA
:1004D00080E0089581E0089508958FEF9FEF0895DB
:1004E0008FEF9FEF08958091640190E09195819541
:1004F00091090895CF93DF93CB01EA01642F0E9405
:100500004502CE01DF91CF910895CF93DF931F92E3
:10051000CDB7DEB7698361E0CE0101960E94450246
:1005200081E090E00F90DF91CF91089590E080E01E
:100530000895CF93DF93E2EBF0E08491EEE9F0E0F1
:10054000D491EAE8F0E0C491CC2359F181110E94E2
:100550009901EC2FF0E0EE0FFF1FE859FF4FA59136
:10056000B491EC91ED23E9F081E08093000180915A
:1005700000018823C9F08091EA019091EB01A091DC
:10058000EC01B091ED010196A11DB11D8093EA012E
:100590009093EB01A093EC01B093ED01DF91CF912B
:1005A000089510920001E3CF8091EA019091EB0150
:1005B000A091EC01B091ED010197A109B109E6CF3D
:1005C000FC0101900020E9F73197AF01481B590B5E
:1005D000BC0182EF91E00C948C008F929F92AF92BD
:1005E000BF920F931F93CF93DF93CDB7DEB7A19741
:1005F0000FB6F894DEBF0FBECDBF19A2423008F48B
:100600004AE08E010F5D1F4F842E912CB12CA12C3E
:10061000A50194010E94F90AE62FB901CA01EA3046
:10062000F4F4E05DD801EE938D01232B242B252BD0
:1006300079F790E080E0109719F0CD010E94E00278
:10064000A1960FB6F894DEBF0FBECDBFDF91CF915C
:100650001F910F91BF90AF909F908F900895E95C8C
:10066000E1CF4F925F926F927F928F929F92AF9263
:10067000BF92CF92DF92EF92FF920F931F93CF938F
:100680006B017C01742EAC019B010E94F40A88234B
:1006900099F087E291E0CF911F910F91FF90EF9039
:1006A000DF90CF90BF90AF909F908F907F906F9092
:1006B0005F904F900C94E00246015701E894B7F820
:1006C0002FEF3FEF4FE75FE7C501B4010E94F40A47
:1006D00081110DC02FEF3FEF4FE75FE7C501B40178
:1006E0000E942A0918161CF48BE291E0D4CF2FEF58
:1006F0003FEF4FE75FE4C701B6010E94820A181678
:100700001CF48FE291E0C7CF2FEF3FEF4FE75FEC94
:10071000C701B6010E942A0987FDF3CF20E030E02F
:10072000A901C701B6010E942A0910E000E087FF75
:100730000AC06DE282EF91E00E942C018C01F7FA71
:10074000F094F7F8F094C0E060E070E080E09FE3A0
:100750007C1641F020E030E040E251E40E942F0995
:10076000CF5FF6CFA70196010E94BE082B013C0186
:100770000E94A1094B015C014AE00E94ED027C014C
:10078000E00EF11ECC23C1F1C501B4010E94D009D5
:100790009B01AC01C301B2010E94BD084B015C0189
:1007A0006EE282EF91E00E942C01E80EF91EC1502A
:1007B00018F120E030E040E251E4C501B4010E94AC
:1007C000870A2B013C010E94A1094B01B12CA12CED
:1007D0004AE0C501B4010E94ED02E80EF91EC50110
:1007E000B4010E94D0099B01AC01C301B2010E9477
:1007F000BD084B015C01DBCFC701CF911F910F9169
:10080000FF90EF90DF90CF90BF90AF909F908F9030
:100810007F906F905F904F9008951F93CF93DF93D9
:1008200085ED8093BC008091670190916801A09153
:100830006901B0916A010796A11DB11D23E0B6952B
:10084000A795979587952A95D1F72091BC0024FD0F
:1008500003C01092AF0152C04091670150916801EE
:100860006091690170916A01452B462B472B69F312
:100870000097A105B10541F025E32A95F1F70000A5
:100880000197A109B109E1CF80916601C1E0C09350
:100890006501882399F1D091B8001091BA00809138
:1008A000BC008A7B8093BC0060E082E10E94C201B0
:1008B00060E083E10E94C2011092AF01C093B101D8
:1008C0001092B00161E082E10E94C20161E083E127
:1008D0000E94C2018091B9008E7F8093B9008091FF
:1008E000B9008D7F8093B90088E48093B80085E4D7
:1008F0008093BC001093BA00D093B800DF91CF91E1
:100900001F9108951F920F920FB60F9211242F93EB
:100910003F934F935F936F937F938F939F93AF9387
:10092000BF93EF93FF9382EF91E00E940A01FF9142
:10093000EF91BF91AF919F918F917F916F915F9157
:100940004F913F912F910F900FBE0F901F901895D0
:100950001F920F920FB60F9211242F938F939F9394
:10096000EF93FF93E0910202F09103028081E09106
:100970000802F091090282FD1BC0908180910B0258
:100980008F5F8F7320910C02821741F0E0910B0270
:10099000F0E0EE50FE4F958F80930B02FF91EF91A8
:1009A0009F918F912F910F900FBE0F901F901895D0
:1009B0008081F4CF1F920F920FB60F9211242F93C4
:1009C0003F938F939F93AF93BF938091DA01909160
:1009D000DB01A091DC01B091DD013091D90123E070
:1009E000230F2D3758F50196A11DB11D2093D90174
:1009F0008093DA019093DB01A093DC01B093DD01D9
:100A00008091D5019091D601A091D701B091D801E4
:100A10000196A11DB11D8093D5019093D601A0939D
:100A2000D701B093D801BF91AF919F918F913F9122
:100A30002F910F900FBE0F901F90189526E8230F4F
:100A40000296A11DB11DD2CF1F920F920FB60F9229
:100A500011242F933F934F935F936F937F938F93C3
:100A60009F93AF93BF93EF93FF93E0910301F091B6
:100A700004010995FF91EF91BF91AF919F918F91E3
:100A80007F916F915F914F913F912F910F900FBE8A
:100A90000F901F9018951F920F920FB60F9211246E
:100AA0002F933F934F935F936F937F938F939F9376
:100AB000AF93BF93EF93FF93E0910101F091020197
:100AC0000995FF91EF91BF91AF919F918F917F9188
:100AD0006F915F914F913F912F910F900FBE0F90AB
:100AE0001F9018951F920F920FB60F9211242F93FB
:100AF0003F934F935F936F937F938F939F93AF93A6
:100B0000BF93EF93FF938091B900887F803609F4FB
:100B10004AC0F0F5883209F4A5C018F5803109F40F
:100B200099C0B8F4882309F4F5C0883009F492C05C
:100B3000FF91EF91BF91AF919F918F917F916F91B5
:100B40005F914F913F912F910F900FBE0F901F908B
:100B50001895883109F486C0803251F78093AE0130
:100B600014C0803409F49BC040F48033B9F3883357
:100B7000F9F68093AE0185ECAEC0803509F483C0F0
:100B8000883509F494C0883499F60E940D04D0CFBA
:100B9000883909F48AC038F5883729F050F4883646
:100BA00011F0803729F683E08093AF011092AD01F8
:100BB00055C0883809F479C0803919F0803809F0B7
:100BC000B7CF8091AD01803208F06FC0E091AD01E8
:100BD00081E08E0F8093AD018091BB00F0E0E35780
:100BE000FE4F80833BC0803B39F0D0F4803A09F45B
:100BF00077C0883A09F09CCF84E08093AF011092CF
:100C00008C0110928B01F0E0E0E0099580918B015E
:100C100081110FC081E080938B0110926B0109C09C
:100C2000803C09F4A8CF883C09F4A5CF883B09F0A3
:100C30007FCFE0918C0181E08E0F80938C01F0E0FA
:100C4000E559FE4F80818093BB0090918C0180918B
:100C50008B0129C08091D4018093BB0085EC8093E7
:100C6000BC0066CF9091D3018091D201981758F5BE
:100C7000E091D30181E08E0F8093D301F0E0EE5438
:100C8000FE4F8081E9CFE091D30181E08E0F809308
:100C9000D3018091BB00F0E0EE54FE4F8083909131
:100CA000D3018091D2019817C8F285E8D8CFE0919E
:100CB000D30181E08E0F8093D3018091BB00F0E0DF
:100CC000EE54FE4F80838091B10181115ECF81E0AF
:100CD0008093B00184EA8093BC001092AF0128CFCA
:100CE00085EC8093BC001092AF018091AD01803201
:100CF00030F4E091AD01F0E0E357FE4F10826091D7
:100D0000AD0170E08DE891E0F0E0E0E0099510922F
:100D1000AD010ECF1092AE0138CFE2EFF1E01382B9
:100D2000128288EE93E0A0E0B0E084839583A683EE
:100D3000B78389E191E09183808385EC90E095878A
:100D4000848784EC90E09787868780EC90E0918B95
:100D5000808B81EC90E0938B828B82EC90E0958B82
:100D6000848B86EC90E0978B868B118E128E138E7F
:100D7000148E0895789484B5826084BD84B58160B2
:100D800084BD85B5826085BD85B5816085BD809156
:100D90006E00816080936E001092810080918100CE
:100DA00082608093810080918100816080938100C6
:100DB000809180008160809380008091B100846088
:100DC0008093B1008091B00081608093B0008091E9
:100DD0007A00846080937A0080917A0082608093A8
:100DE0007A0080917A00816080937A0080917A0005
:100DF000806880937A001092C100E0910202F09125
:100E0000030282E08083E091FE01F091FF011082F5
:100E1000E0910002F09101028FEC808310920A02AF
:100E2000E0910602F091070286E08083E0910402DF
:100E3000F0910502808180618083E0910402F0914D
:100E40000502808188608083E0910402F0910502B0
:100E5000808180688083E0910402F09105028081A6
:100E60008F7D8083809180008C7F80938000809133
:100E70008100877E80618093810064EF71E080E073
:100E800090E00E942D028091B0008C7F8160809361
:100E9000B0008091B10088608093B100C0E08EE323
:100EA00090E0C12C54E2D52E54EFE52EF12CCF5F0B
:100EB000EC2FF0E0EE0FFF1FEB5FFE4F0081118182
:100EC00008171907A0F39801A8EEB3E00E943A0BA7
:100ED0009B01AC01C701B6010E94F90AC8012F3F6E
:100EE000310509F020F72093B3008091B100887F8D
:100EF000C770C82BC093B100E7EBF0E0E4918DEF31
:100F00008E0F823008F007C160E27EE480E090E05E
:100F10000E942D0261E088E00E94F00161E087E01C
:100F20000E94F00161E086E00E94F00161E085E04E
:100F30000E94F00161E089E00E94F00162E082E03D
:100F40000E94F00160E084E00E94F00189E992E0F3
:100F500090930201809301018091690083608093E6
:100F60006900E89A61E088E00E94C20160E085E0E3
:100F70000E94C20161E089E00E94F00160E089E026
:100F80000E94C20161E087E00E94C20161E086E048
:100F90000E94C20184E6C82ED12CE12CF12C00E085
:100FA00010E02FB7F8948091DA019091DB01A091C5
:100FB000DC01B091DD012FBF4091EE015091EF01B6
:100FC0006091F0017091F1014C015D01841A950A64
:100FD000A60AB70AB501A401493E5340610571054F
:100FE0000CF48DC08093EE019093EF01A093F0017B
:100FF000B093F1012091EA013091EB014091EC01B5
:101000005091ED01ACE3B0E00E94490BA7019601BD
:101010000E941B0BCA01B9010E94D2096093E6012C
:101020007093E7018093E8019093E90120E537E7A9
:1010300046ED5DE30E94870A6093E2017093E3014D
:101040008093E4019093E5012091DE013091DF016E
:101050004091E0015091E1010E94BD084B015C010B
:1010600083E391E00E94E0026091E6017091E70164
:101070008091E8019091E90142E00E94310388E308
:1010800091E00E94E0028CE391E00E94E002609116
:10109000E2017091E3018091E4019091E50142E069
:1010A0000E94310388E391E00E94E0028DE491E028
:1010B0000E94E00242E0C501B4010E94310381E6D2
:1010C00091E00E94E00288E391E00E94E002109229
:1010D000EA011092EB011092EC011092ED01809167
:1010E000E2019091E301A091E401B091E5018093C8
:1010F000DE019093DF01A093E001B093E1010115BF
:10110000110509F44ECF0E94F600882309F449CF57
:101110000E94000046CFE83009F0FCCEC0E081E03C
:1011200090E0C12C34E2D32E34EFE32EF12CCF5FCC
:10113000EC2FF0E0EE0FFF1FEB5FFE4F00811181FF
:1011400008171907A0F39801A0E4BCE90E943A0B24
:101150009B01AC01C701B6010E94F90AC8012F3FEB
:10116000310509F020F72093B3008091B100887F0A
:10117000C770C82BC093B100CDCE5058BB27AA274B
:101180000E94D5080C94480A0E943A0A38F00E943E
:10119000410A20F039F49F3F19F426F40C94370AE1
:1011A0000EF4E095E7FB0C94310AE92F0E94590AEE
:1011B00058F3BA17620773078407950720F079F48C
:1011C000A6F50C947B0A0EF4E0950B2EBA2FA02DF9
:1011D0000B01B90190010C01CA01A0011124FF27E4
:1011E000591B99F0593F50F4503E68F11A16F040DF
:1011F000A22F232F342F4427585FF3CF46953795DE
:101200002795A795F0405395C9F77EF41F16BA0BA2
:10121000620B730B840BBAF09150A1F0FF0FBB1F50
:10122000661F771F881FC2F70EC0BA0F621F731F99
:10123000841F48F4879577956795B795F7959E3FF6
:1012400008F0B0CF9395880F08F09927EE0F979587
:10125000879508950E940D0A08F481E008950E9480
:1012600043090C94480A0E94410A58F00E943A0A25
:1012700040F029F45F3F29F00C94310A51110C948D
:101280007C0A0C94370A0E94590A68F39923B1F337
:10129000552391F3951B550BBB27AA27621773079C
:1012A000840738F09F5F5F4F220F331F441FAA1F30
:1012B000A9F335D00E2E3AF0E0E832D091505040EC
:1012C000E695001CCAF72BD0FE2F29D0660F771F9A
:1012D000881FBB1F261737074807AB07B0E809F080
:1012E000BB0B802DBF01FF2793585F4F3AF09E3F05
:1012F000510578F00C94310A0C947C0A5F3FE4F3BA
:10130000983ED4F3869577956795B795F7959F5F47
:10131000C9F7880F911D9695879597F90895E1E093
:10132000660F771F881FBB1F621773078407BA07F2
:1013300020F0621B730B840BBA0BEE1F88F7E0954D
:1013400008950E94610A88F09F5798F0B92F992755
:10135000B751B0F0E1F0660F771F881F991F1AF0A0
:10136000BA95C9F714C0B13091F00E947B0AB1E080
:1013700008950C947B0A672F782F8827B85F39F07F
:10138000B93FCCF3869577956795B395D9F73EF439
:1013900090958095709561957F4F8F4F9F4F0895E1
:1013A000E89409C097FB3EF49095809570956195FF
:1013B0007F4F8F4F9F4F9923A9F0F92F96E9BB27B5
:1013C0009395F695879577956795B795F111F8CF31
:1013D000FAF4BB0F11F460FF1BC06F5F7F4F8F4F9C
:1013E0009F4F16C0882311F096E911C0772321F092
:1013F0009EE8872F762F05C0662371F096E8862F2A
:1014000070E060E02AF09A95660F771F881FDAF780
:10141000880F9695879597F90895990F0008550FAD
:10142000AA0BE0E8FEEF16161706E807F907C0F06A
:1014300012161306E407F50798F0621B730B840B72
:10144000950B39F40A2661F0232B242B252B21F44C
:1014500008950A2609F4A140A6958FEF811D811DEC
:10146000089597F99F6780E870E060E008959FEF26
:1014700080EC089500240A9416161706180609062B
:10148000089500240A9412161306140605060895FA
:10149000092E0394000C11F4882352F0BB0F40F482
:1014A000BF2B11F460FF04C06F5F7F4F8F4F9F4FC2
:1014B000089557FD9058440F551F59F05F3F71F044
:1014C0004795880F97FB991F61F09F3F79F08795AB
:1014D0000895121613061406551FF2CF4695F1DF34
:1014E00008C0161617061806991FF1CF86957105C4
:1014F000610508940895E894BB2766277727CB01F8
:1015000097F908950E940D0A08F48FEF08950E943C
:101510009A0A0C94480A0E943A0A38F00E94410A3A
:1015200020F0952311F00C94310A0C94370A112401
:101530000C947C0A0E94590A70F3959FC1F3950F91
:1015400050E0551F629FF001729FBB27F00DB11D47
:10155000639FAA27F00DB11DAA1F649F6627B00DD7
:10156000A11D661F829F2227B00DA11D621F739FC0
:10157000B00DA11D621F839FA00D611D221F749FCE
:101580003327A00D611D231F849F600D211D822F15
:10159000762F6A2F11249F5750409AF0F1F088233C
:1015A0004AF0EE0FFF1FBB1F661F771F881F915069
:1015B0005040A9F79E3F510580F00C94310A0C94DD
:1015C0007C0A5F3FE4F3983ED4F386957795679560
:1015D000B795F795E7959F5FC1F7FE2B880F911D93
:1015E0009695879597F908950E940D0A880B990B97
:1015F0000895A1E21A2EAA1BBB1BFD010DC0AA1F54
:10160000BB1FEE1FFF1FA217B307E407F50720F06B
:10161000A21BB30BE40BF50B661F771F881F991FE6
:101620001A9469F760957095809590959B01AC012F
:10163000BD01CF010895052E97FB1EF400940E9472
:10164000320B57FD07D00E94F90A07FC03D04EF475
:101650000C94320B50954095309521953F4F4F4F4C
:101660005F4F089590958095709561957F4F8F4F4E
:101670009F4F0895A29FB001B39FC001A39F700D1B
:10168000811D1124911DB29F700D811D1124911D8A
:1016900008950E943A0BA59F900DB49F900DA49FB2
:1016A000800D911D11240895EE0FFF1F0590F491F8
:1016B000E02D0994F894FFCF012C022C02000001C8
:1016C000000800200040008000000100040000002D
:1016D000002C018C00B9007901EA00C800DC006E22
:1016E000616E00696E66006F76660052504D3A007A
:1016F00020202000416E67756C617256656C6F63C7
:101700006974793A00416E67756C61724163636C0C
:0C17100065726174696F6E3A000D0A008A
:107E0000112484B714BE81FFF0D085E080938100F7
:107E100082E08093C00088E18093C10086E0809377
:107E2000C20080E18093C4008EE0C9D0259A86E02C
:107E300020E33CEF91E0309385002093840096BBD3
:107E4000B09BFECF1D9AA8958150A9F7CC24DD24C4
:107E500088248394B5E0AB2EA1E19A2EF3E0BF2EE7
:107E6000A2D0813461F49FD0082FAFD0023811F036
:107E7000013811F484E001C083E08DD089C08234E0
:107E800011F484E103C0853419F485E0A6D080C0E4
:107E9000853579F488D0E82EFF2485D0082F10E0AE
:107EA000102F00270E291F29000F111F8ED06801E7
:107EB0006FC0863521F484E090D080E0DECF843638
:107EC00009F040C070D06FD0082F6DD080E0C81688
:107ED00080E7D80618F4F601B7BEE895C0E0D1E017
:107EE00062D089930C17E1F7F0E0CF16F0E7DF06D8
:107EF00018F0F601B7BEE89568D007B600FCFDCFD4
:107F0000A601A0E0B1E02C9130E011968C91119780
:107F100090E0982F8827822B932B1296FA010C0160
:107F200087BEE89511244E5F5F4FF1E0A038BF0790
:107F300051F7F601A7BEE89507B600FCFDCF97BE46
:107F4000E89526C08437B1F42ED02DD0F82E2BD052
:107F50003CD0F601EF2C8F010F5F1F4F84911BD097
:107F6000EA94F801C1F70894C11CD11CFA94CF0C13
:107F7000D11C0EC0853739F428D08EE10CD085E9AC
:107F80000AD08FE07ACF813511F488E018D01DD067
:107F900080E101D065CF982F8091C00085FFFCCF94
:107FA0009093C60008958091C00087FFFCCF809118
:107FB000C00084FD01C0A8958091C6000895E0E648
:107FC000F0E098E1908380830895EDDF803219F02E
:107FD00088E0F5DFFFCF84E1DECF1F93182FE3DFCA
:107FE0001150E9F7F2DF1F91089580E0E8DFEE27F6
:047FF000FF270994CA
:027FFE00040479
:00000001FF
