:100000000C9462000C944B050C9424050C948A000B
:100010000C948A000C948A000C948A000C948A0038
:100020000C948A000C948A000C948A000C948A0028
:100030000C948A000C948A000C948A000C948A0018
:100040000C94DA040C948A000C94A8040C94820496
:100050000C948A000C948A000C948A000C948A00F8
:100060000C9472050C948A00000000002300260006
:10007000290000000000240027002A0000000000E2
:10008000250028002B0004040404040404040202D4
:100090000202020203030303030301020408102007
:1000A0004080010204081020010204081020000012
:1000B0000008000201000003040700000000000027
:1000C00000008D0611241FBECFEFD8E0DEBFCDBFEC
:1000D00011E0A0E0B1E0EEECF7E102C005900D9276
:1000E000A237B107D9F722E0A2E7B1E001C01D9223
:1000F000A53AB207E1F710E0C2E6D0E004C02197CC
:10010000FE010E94DF0BC136D107C9F70E94BA0673
:100110000C94E50B0C940000AF92BF92CF92DF924B
:10012000EF92FF920F931F93CF93DF936C017B01AC
:100130008B01040F151FEB015E01AE18BF08C0173D
:10014000D10759F06991D601ED91FC910190F081B0
:10015000E02DC6010995892B79F7C501DF91CF9173
:100160001F910F91FF90EF90DF90CF90BF90AF90D5
:100170000895FC01538D448D252F30E0842F90E0AD
:10018000821B930B541710F0CF9608950197089592
:10019000FC01918D828D981761F0A28DAE0FBF2F5B
:1001A000B11D5D968C91928D9F5F9F73928F90E0B1
:1001B00008958FEF9FEF0895FC01918D828D981720
:1001C00031F0828DE80FF11D858D90E008958FEF5D
:1001D0009FEF0895FC01918D228D892F90E0805C26
:1001E0009F4F821B91098F739927089588E092E0B1
:1001F0000E94EA0021E0892B09F420E0822F089573
:1002000080E090E0892B29F00E94F60081110C9487
:1002100000000895FC01A48DA80FB92FB11DA35AA9
:10022000BF4F2C91848D90E001968F739927848F16
:10023000A689B7892C93A089B1898C918370806439
:100240008C93938D848D981306C00288F389E02DDA
:1002500080818F7D80830895EF92FF920F931F938B
:10026000CF93DF93EC0181E0888F9B8D8C8D981369
:100270001AC0E889F989808185FF15C09FB7F89475
:10028000EE89FF896083E889F989808183708064C1
:1002900080839FBF81E090E0DF91CF911F910F910C
:1002A000FF90EF900895F62E0B8D10E00F5F1F4F1B
:1002B0000F731127E02E8C8D8E110CC00FB607FC2A
:1002C000FACFE889F989808185FFF5CFCE010E94B8
:1002D0000A01F1CFEB8DEC0FFD2FF11DE35AFF4F1B
:1002E000F0829FB7F8940B8FEA89FB898081806246
:1002F000CFCFCF93DF93EC01888D8823B9F0AA8903
:10030000BB89E889F9898C9185FD03C0808186FDD0
:100310000DC00FB607FCF7CF8C9185FFF2CF80811F
:1003200085FFEDCFCE010E940A01E9CFDF91CF9189
:100330000895833081F028F4813099F08230A9F05B
:1003400008958730A9F08830C9F08430B1F48091E5
:1003500080008F7D03C0809180008F778093800024
:10036000089584B58F7784BD089584B58F7DFBCFC4
:100370008091B0008F778093B00008958091B00095
:100380008F7DF9CF1F93CF93DF93282F30E0F901B2
:10039000E255FF4F8491F901E656FF4FD491F901E0
:1003A000EA57FF4FC491CC23A9F0162F81110E9468
:1003B0009901EC2FF0E0EE0FFF1FE458FF4FA591DD
:1003C000B4918FB7F894EC91111108C0D095DE2349
:1003D000DC938FBFDF91CF911F910895DE2BF8CF73
:1003E000CF93DF9390E0FC01E656FF4F24918A57AC
:1003F0009F4FFC0184918823C9F090E0880F991FDA
:10040000FC01EE58FF4FA591B491FC01E458FF4F59
:10041000C591D49161110DC09FB7F8948C9120952E
:1004200082238C938881282328839FBFDF91CF91DB
:100430000895623051F49FB7F8943C91822F8095D3
:1004400083238C93E8812E2BEFCF8FB7F894EC9118
:100450002E2B2C938FBFEACF08959B01AC01220F66
:10046000331F441F551F60E074E284EF90E00E9448
:10047000840B3093870020938600E1E8F0E08081D0
:10048000887F8160808381E0089520919901260F03
:100490003327331F21323105ECF42091BD01FC01DB
:1004A00090E080E0243069F082E00895A091990105
:1004B0002191AC0147585E4FA40FB52FB11D2C936D
:1004C0000196861798F380919901680F60939901BE
:1004D00080E0089581E0089508958FEF9FEF0895DB
:1004E0008FEF9FEF08958091720190E09195819533
:1004F00091090895CF93DF93CB01EA01642F0E9405
:100500004502CE01DF91CF910895CF93DF931F92E3
:10051000CDB7DEB7698361E0CE0101960E94450246
:1005200081E090E00F90DF91CF91089590E080E01E
:100530000895CF93DF93E2EBF0E08491EEE9F0E0F1
:10054000D491EAE8F0E0C491CC2359F181110E94E2
:100550009901EC2FF0E0EE0FFF1FE859FF4FA59136
:10056000B491EC91ED23E9F081E08093000180915A
:1005700000018823C9F08091FC019091FD01A091B8
:10058000FE01B091FF010196A11DB11D8093FC01F8
:100590009093FD01A093FE01B093FF01DF91CF91F5
:1005A000089510920001E3CF8091FC019091FD012C
:1005B000A091FE01B091FF010197A109B109E6CF19
:1005C000FC0101900020E9F73197AF01481B590B5E
:1005D000BC0188E092E00C948C008F929F92AF92C5
:1005E000BF920F931F93CF93DF93CDB7DEB7A19741
:1005F0000FB6F894DEBF0FBECDBF19A2423008F48B
:100600004AE08E010F5D1F4F842E912CB12CA12C3E
:10061000A50194010E94840BE62FB901CA01EA30BA
:10062000F4F4E05DD801EE938D01232B242B252BD0
:1006300079F790E080E0109719F0CD010E94E00278
:10064000A1960FB6F894DEBF0FBECDBFDF91CF915C
:100650001F910F91BF90AF909F908F900895E95C8C
:10066000E1CF4F925F926F927F928F929F92AF9263
:10067000BF92CF92DF92EF92FF920F931F93CF938F
:100680006B017C01742EAC019B010E947F0B8823BF
:1006900099F089E291E0CF911F910F91FF90EF9037
:1006A000DF90CF90BF90AF909F908F907F906F9092
:1006B0005F904F900C94E00246015701E894B7F820
:1006C0002FEF3FEF4FE75FE7C501B4010E947F0BBB
:1006D00081110DC02FEF3FEF4FE75FE7C501B40178
:1006E0000E94B50918161CF48DE291E0D4CF2FEFCB
:1006F0003FEF4FE75FE4C701B6010E940D0B1816EC
:100700001CF481E391E0C7CF2FEF3FEF4FE75FECA1
:10071000C701B6010E94B50987FDF3CF20E030E0A4
:10072000A901C701B6010E94B50910E000E087FFEA
:100730000AC06DE288E092E00E942C018C01F7FA79
:10074000F094F7F8F094C0E060E070E080E09FE3A0
:100750007C1641F020E030E040E251E40E94BA090A
:10076000CF5FF6CFA70196010E9449092B013C01FA
:100770000E942C0A4B015C014AE00E94ED027C01C0
:10078000E00EF11ECC23C1F1C501B4010E945B0A49
:100790009B01AC01C301B2010E9448094B015C01FD
:1007A0006EE288E092E00E942C01E80EF91EC15032
:1007B00018F120E030E040E251E4C501B4010E94AC
:1007C000120B2B013C010E942C0A4B01B12CA12CD5
:1007D0004AE0C501B4010E94ED02E80EF91EC50110
:1007E000B4010E945B0A9B01AC01C301B2010E94EB
:1007F00048094B015C01DBCFC701CF911F910F91DD
:10080000FF90EF90DF90CF90BF90AF909F908F9030
:100810007F906F905F904F9008951F93CF93DF93D9
:1008200085ED8093BC008091750190917601A09137
:100830007701B09178010796A11DB11D23E0B6950F
:10084000A795979587952A95D1F72091BC0024FD0F
:1008500003C01092BD0152C04091750150917601C4
:100860006091770170917801452B462B472B69F3F6
:100870000097A105B10541F025E32A95F1F70000A5
:100880000197A109B109E1CF80917401C1E0C09342
:100890007301882399F1D091B8001091BA0080912A
:1008A000BC008A7B8093BC0060E082E10E94C201B0
:1008B00060E083E10E94C2011092BD01C093BF01BC
:1008C0001092BE0161E082E10E94C20161E083E119
:1008D0000E94C2018091B9008E7F8093B9008091FF
:1008E000B9008D7F8093B90088E48093B80085E4D7
:1008F0008093BC001093BA00D093B800DF91CF91E1
:100900001F9108951F920F920FB60F9211242F93EB
:100910003F934F935F936F937F938F939F93AF9387
:10092000BF93EF93FF9388E092E00E940A01FF914A
:10093000EF91BF91AF919F918F917F916F915F9157
:100940004F913F912F910F900FBE0F901F901895D0
:100950001F920F920FB60F9211242F938F939F9394
:10096000EF93FF93E0911802F09119028081E091DA
:100970001E02F0911F0282FD1BC090818091210216
:100980008F5F8F7320912202821741F0E091210244
:10099000F0E0E85FFD4F958F80932102FF91EF918A
:1009A0009F918F912F910F900FBE0F901F901895D0
:1009B0008081F4CF1F920F920FB60F9211242F93C4
:1009C0003F938F939F93AF93BF938091E801909152
:1009D000E901A091EA01B091EB013091E70123E038
:1009E000230F2D3758F50196A11DB11D2093E70166
:1009F0008093E8019093E901A093EA01B093EB01A1
:100A00008091E3019091E401A091E501B091E601AC
:100A10000196A11DB11D8093E3019093E401A09381
:100A2000E501B093E601BF91AF919F918F913F9106
:100A30002F910F900FBE0F901F90189526E8230F4F
:100A40000296A11DB11DD2CF1F920F920FB60F9229
:100A500011242F933F934F935F936F937F938F93C3
:100A60009F93AF93BF93EF93FF93E0910301F091B6
:100A700004010995FF91EF91BF91AF919F918F91E3
:100A80007F916F915F914F913F912F910F900FBE8A
:100A90000F901F9018951F920F920FB60F9211246E
:100AA0002F933F934F935F936F937F938F939F9376
:100AB000AF93BF93EF93FF93E0910101F091020197
:100AC0000995FF91EF91BF91AF919F918F917F9188
:100AD0006F915F914F913F912F910F900FBE0F90AB
:100AE0001F9018951F920F920FB60F9211242F93FB
:100AF0003F934F935F936F937F938F939F93AF93A6
:100B0000BF93EF93FF938091B900887F803609F4FB
:100B10004AC0F0F5883209F4A5C018F5803109F40F
:100B200099C0B8F4882309F4F5C0883009F492C05C
:100B3000FF91EF91BF91AF919F918F917F916F91B5
:100B40005F914F913F912F910F900FBE0F901F908B
:100B50001895883109F486C0803251F78093BC0122
:100B600014C0803409F49BC040F48033B9F3883357
:100B7000F9F68093BC0185ECAEC0803509F483C0E2
:100B8000883509F494C0883499F60E940D04D0CFBA
:100B9000883909F48AC038F5883729F050F4883646
:100BA00011F0803729F683E08093BD011092BB01DC
:100BB00055C0883809F479C0803919F0803809F0B7
:100BC000B7CF8091BB01803208F06FC0E091BB01CC
:100BD00081E08E0F8093BB018091BB00F0E0E55671
:100BE000FE4F80833BC0803B39F0D0F4803A09F45B
:100BF00077C0883A09F09CCF84E08093BD011092C1
:100C00009A0110929901F0E0E0E009958091990134
:100C100081110FC081E0809399011092790109C080
:100C2000803C09F4A8CF883C09F4A5CF883B09F0A3
:100C30007FCFE0919A0181E08E0F80939A01F0E0DE
:100C4000E758FE4F80818093BB0090919A0180917C
:100C5000990129C08091E2018093BB0085EC8093CB
:100C6000BC0066CF9091E1018091E001981758F5A2
:100C7000E091E10181E08E0F8093E101F0E0E0542A
:100C8000FE4F8081E9CFE091E10181E08E0F8093FA
:100C9000E1018091BB00F0E0E054FE4F8083909131
:100CA000E1018091E0019817C8F285E8D8CFE09182
:100CB000E10181E08E0F8093E1018091BB00F0E0C3
:100CC000E054FE4F80838091BF0181115ECF81E0AF
:100CD0008093BE0184EA8093BC001092BD0128CFAE
:100CE00085EC8093BC001092BD018091BB018032E5
:100CF00030F4E091BB01F0E0E556FE4F10826091C8
:100D0000BB0170E08BE991E0F0E0E0E00995109222
:100D1000BB010ECF1092BC0138CFE8E0F2E01382A5
:100D2000128288EE93E0A0E0B0E084839583A683EE
:100D3000B7838BE191E09183808385EC90E0958788
:100D4000848784EC90E09787868780EC90E0918B95
:100D5000808B81EC90E0938B828B82EC90E0958B82
:100D6000848B86EC90E0978B868B118E128E138E7F
:100D7000148E0895789484B5826084BD84B58160B2
:100D800084BD85B5826085BD85B5816085BD809156
:100D90006E00816080936E001092810080918100CE
:100DA00082608093810080918100816080938100C6
:100DB000809180008160809380008091B100846088
:100DC0008093B1008091B00081608093B0008091E9
:100DD0007A00846080937A0080917A0082608093A8
:100DE0007A0080917A00816080937A0080917A0005
:100DF000806880937A001092C100E0911802F0910F
:100E0000190282E08083E0911402F09115021082B1
:100E1000E0911602F09117028FEC8083109220026D
:100E2000E0911C02F0911D0286E08083E0911A029D
:100E3000F0911B02808180618083E0911A02F09121
:100E40001B02808188608083E0911A02F0911B026E
:100E5000808180688083E0911A02F0911B0280817A
:100E60008F7D8083809180008C7F80938000809133
:100E70008100877E80618093810064EF71E080E073
:100E800090E00E942D028091B0008C7F8160809361
:100E9000B0008091B10088608093B100C0E08EE323
:100EA00090E0C12C54E2D52E54EFE52EF12CCF5F0B
:100EB000EC2FF0E0EE0FFF1FE95FFE4F0081118184
:100EC00008171907A0F39801A8EEB3E00E94C50B1C
:100ED0009B01AC01C701B6010E94840BC8012F3FE2
:100EE000310509F020F72093B3008091B100887F8D
:100EF000C770C82BC093B10007EB10E0F8018491D4
:100F00009DEF980F923008F04BC160E27EE480E0E4
:100F100090E00E942D0261E088E00E94F00161E013
:100F200087E00E94F00161E086E00E94F00161E04C
:100F300085E00E94F00161E089E00E94F00162E03A
:100F400082E00E94F00160E084E00E94F00189E903
:100F500092E0909302018093010180916900836087
:100F600080936900E89A84E6482E512C612C712CFC
:100F700090E0A92E90E0B92E2FB7F8948091E80167
:100F80009091E901A091EA01B091EB012FBF80930C
:100F9000040290930502A0930602B09307024091C9
:100FA0000002509101026091020270910302841BC1
:100FB000950BA60BB70B893E9340A105B1050CF428
:100FC00086C0C0910501D091060161E088E00E94D1
:100FD000C20160E085E00E94C20161E089E00E94F8
:100FE000F001209709F00EC160E089E00E94C20183
:100FF00061E087E00E94C20161E086E00E94C201D8
:1010000080910501909106010F97909306018093BE
:1010100005018091040290910502A0910602B09111
:1010200007028093000290930102A0930202B09302
:1010300003022091FC013091FD014091FE0150918D
:10104000FF01ACE3B0E00E94D40BA30192010E9427
:10105000A60BCA01B9010E945D0A6093F801709362
:10106000F9018093FA019093FB0120E537E746ED03
:101070005DE30E94120B6B017C01C092F401D092DF
:10108000F501E092F601F092F7012091F001309124
:10109000F1014091F2015091F3010E9448096093DF
:1010A000EC017093ED018093EE019093EF011092AB
:1010B000FC011092FD011092FE011092FF01C092FE
:1010C000F001D092F101E092F201F092F30185E398
:1010D00091E00E94E0026091F8017091F901809125
:1010E000FA019091FB0142E00E9431038AE391E012
:1010F0000E94E0028EE391E00E94E0026091F40120
:101100007091F5018091F6019091F70142E00E9403
:1011100031038AE391E00E94E0028FE491E00E94B3
:10112000E0026091EC017091ED018091EE019091EF
:10113000EF0142E00E94310383E691E00E94E00269
:1011400086E691E00E94E002C0900501D090060181
:101150000D2C000CEE08FF084AE0C701B601F7FEAF
:101160000DC06DE288E092E00E942C01662777278F
:10117000CB016C197D098E099F094AE00E94ED029E
:101180008AE391E00E94E002A114B10409F4F4CED4
:101190000E94F600882309F4EFCE0E940000ECCEF6
:1011A000883009F0B8CEC0E081E090E0412C34E214
:1011B000532E34EF632E712CCF5FEC2FF0E0EE0F47
:1011C000FF1FE95FFE4FE080F180E816F906A0F30B
:1011D0009701A0E4BCE90E94C50B9B01AC01C301CF
:1011E000B2010E94840BC7012F3F310509F020F79F
:1011F0002093B3008091B100887FC770C82BC09343
:10120000B10089CECF3FD10511F461E0EECEF801F7
:101210008491833019F140F48130B1F08230C9F00B
:10122000C038D10594F7E0CE873011F1883041F114
:101230008430B1F780918000806280938000D093E9
:101240008B00C0938A00D4CE84B5806884BDC7BDAE
:10125000CFCE84B5806284BDC8BDCACE80918000E7
:10126000806880938000D0938900C0938800C0CEAE
:101270008091B00080688093B000C093B300B8CE76
:101280008091B00080628093B000C093B400B0CE73
:101290005058BB27AA270E9460090C94D30A0E94C9
:1012A000C50A38F00E94CC0A20F039F49F3F19F4A7
:1012B00026F40C94C20A0EF4E095E7FB0C94BC0AE9
:1012C000E92F0E94E40A58F3BA17620773078407EC
:1012D000950720F079F4A6F50C94060B0EF4E09532
:1012E0000B2EBA2FA02D0B01B90190010C01CA01E0
:1012F000A0011124FF27591B99F0593F50F4503E8B
:1013000068F11A16F040A22F232F342F4427585F7C
:10131000F3CF469537952795A795F0405395C9F794
:101320007EF41F16BA0B620B730B840BBAF091504C
:10133000A1F0FF0FBB1F661F771F881FC2F70EC0EB
:10134000BA0F621F731F841F48F4879577956795BE
:10135000B795F7959E3F08F0B0CF9395880F08F0AA
:101360009927EE0F9795879508950E94980A08F49B
:1013700081E008950E94CE090C94D30A0E94CC0A01
:1013800058F00E94C50A40F029F45F3F29F00C9400
:10139000BC0A51110C94070B0C94C20A0E94E40A77
:1013A00068F39923B1F3552391F3951B550BBB2794
:1013B000AA2762177307840738F09F5F5F4F220FD9
:1013C000331F441FAA1FA9F335D00E2E3AF0E0E8D0
:1013D00032D091505040E695001CCAF72BD0FE2F1A
:1013E00029D0660F771F881FBB1F261737074807AE
:1013F000AB07B0E809F0BB0B802DBF01FF27935866
:101400005F4F3AF09E3F510578F00C94BC0A0C9463
:10141000070B5F3FE4F3983ED4F386957795679585
:10142000B795F7959F5FC9F7880F911D969587959A
:1014300097F90895E1E0660F771F881FBB1F6217B9
:1014400073078407BA0720F0621B730B840BBA0B77
:10145000EE1F88F7E09508950E94EC0A88F09F57E8
:1014600098F0B92F9927B751B0F0E1F0660F771FC8
:10147000881F991F1AF0BA95C9F714C0B13091F0BE
:101480000E94060BB1E008950C94060B672F782F8D
:101490008827B85F39F0B93FCCF386957795679583
:1014A000B395D9F73EF490958095709561957F4FEF
:1014B0008F4F9F4F0895E89409C097FB3EF4909595
:1014C0008095709561957F4F8F4F9F4F9923A9F01D
:1014D000F92F96E9BB279395F695879577956795AC
:1014E000B795F111F8CFFAF4BB0F11F460FF1BC0F0
:1014F0006F5F7F4F8F4F9F4F16C0882311F096E983
:1015000011C0772321F09EE8872F762F05C0662330
:1015100071F096E8862F70E060E02AF09A95660FE9
:10152000771F881FDAF7880F9695879597F90895A2
:10153000990F0008550FAA0BE0E8FEEF16161706E4
:10154000E807F907C0F012161306E407F50798F04C
:10155000621B730B840B950B39F40A2661F0232B65
:10156000242B252B21F408950A2609F4A140A695E1
:101570008FEF811D811D089597F99F6780E870E0C6
:1015800060E008959FEF80EC089500240A941616F9
:10159000170618060906089500240A941216130661
:1015A000140605060895092E0394000C11F48823EF
:1015B00052F0BB0F40F4BF2B11F460FF04C06F5F0B
:1015C0007F4F8F4F9F4F089557FD9058440F551FE1
:1015D00059F05F3F71F04795880F97FB991F61F0B5
:1015E0009F3F79F087950895121613061406551F2C
:1015F000F2CF4695F1DF08C0161617061806991F98
:10160000F1CF86957105610508940895E894BB278C
:1016100066277727CB0197F908950E94980A08F466
:101620008FEF08950E94250B0C94D30A0E94C50ADF
:1016300038F00E94CC0A20F0952311F00C94BC0ADB
:101640000C94C20A11240C94070B0E94E40A70F354
:10165000959FC1F3950F50E0551F629FF001729F57
:10166000BB27F00DB11D639FAA27F00DB11DAA1F66
:10167000649F6627B00DA11D661F829F2227B00DB3
:10168000A11D621F739FB00DA11D621F839FA00D3E
:10169000611D221F749F3327A00D611D231F849F8E
:1016A000600D211D822F762F6A2F11249F575040E5
:1016B0009AF0F1F088234AF0EE0FFF1FBB1F661F60
:1016C000771F881F91505040A9F79E3F510580F029
:1016D0000C94BC0A0C94070B5F3FE4F3983ED4F3E0
:1016E000869577956795B795F795E7959F5FC1F7CD
:1016F000FE2B880F911D9695879597F908950E9466
:10170000980A880B990B0895A1E21A2EAA1BBB1BFD
:10171000FD010DC0AA1FBB1FEE1FFF1FA217B307BD
:10172000E407F50720F0A21BB30BE40BF50B661FD3
:10173000771F881F991F1A9469F760957095809597
:1017400090959B01AC01BD01CF010895052E97FB3B
:101750001EF400940E94BD0B57FD07D00E94840B1D
:1017600007FC03D04EF40C94BD0B5095409530957A
:1017700021953F4F4F4F5F4F0895909580957095FD
:1017800061957F4F8F4F9F4F0895A29FB001B39FE8
:10179000C001A39F700D811D1124911DB29F700D7A
:1017A000811D1124911D08950E94C50BA59F900DC8
:1017B000B49F900DA49F800D911D11240895EE0FEC
:0E17C000FF1F0590F491E02D0994F894FFCFDF
:1017CE00012C022C027C01000001000800200040C8
:1017DE0000800000010004000000002C018C00B904
:1017EE00007901EA00C800DC006E616E00696E6669
:1017FE00006F76660052504D3A0020202000416E58
:10180E0067756C617256656C6F636974793A0041E5
:10181E006E67756C61724163636C65726174696F3A
:10182E006E3A000D0A0070776D5F7369676E616CBA
:02183E003A006E
:00000001FF
